:1003C700523030302047303030204230303020003B
:1003D7002020202020206E3A303020733A30300021
:0C03E70057686974650020202020200069
:08046900C181C180020B0014E7
:1003F30012041A7F3812043512041A7F0C120435C2
:1004030012041A7F0612043512041A7F01120435EE
:070413007F647E0002041E5D
:100435008F1212041AC2A0C2A1D2A2851280120480
:0A0445001AC2A27F0A7E0002041E04
:10044F008F1212041AD2A0C2A1D2A2851280120456
:0A045F001AC2A27F0A7E0002041EEA
:0F039B0075F00A8475F00A84E5F02430FB7D01CB
:0203AA008B0EB8
:1003AC00ED64017007EF2480F50F8005EF24C0F594
:0B03BC000FAF0F120435AF0E02044F0C
:060321007BFF7D02E4FFFA
:060327008B0E8A0F891005
:10032D00ED64017007EF2480F5118005EF24C0F511
:10033D0011AF11120435AB0EAA0FA9101201E3FF74
:10034D00601012044F74012510F510E4350FF50FF0
:02035D0080E43A
:01035F00227B
:04041A007F0A7E00D7
:10041E00D3EF9400EE9400400D000000000000EFBA
:06042E001F70ED1E80EAC4
:0104340022A5
:0704720000D29100C29122AB
:10025100E4FEFDC291D29000C292120472D29012B9
:100261000472EF24FF9290120472D290E4FFEFC364
:100271009408748094805012EE25E0FE12047230CE
:10028100900543060180000F80E4E4FFEFC394086A
:10029100748094805012EDC313FD309005430580A6
:1002A10080001204720F80E400D290D291D292EEBB
:0702B100B50502FF227F00EA
:0102B8002223
:0704790000D29400C294229E
:1002B900E4FEFDC294D29300C295120479D293123E
:1002C9000479EF24FF9293120479D293E4FFEFC3E8
:1002D9009408748094805012EE25E0FE120479305F
:1002E900930543060180000F80E4E4FFEFC39408FF
:1002F900748094805012EDC313FD3093054305803B
:1003090080001204790F80E400D293D294D295EE42
:07031900B50502FF227F0081
:0103200022BA
:10000300E50A75F064842430FB7D017F011203AAA5
:10001300E50A7F0212039BE50A75F00A84E5F024E2
:1000230030FB7D017F031203AAE50975F064842484
:1000330030FB7D017F061203AAE5097F0712039BAC
:10004300E50975F00A84E5F02430FB7D017F081291
:1000530003AAE50875F064842430FB7D017F0B124D
:1000630003AAE50875F00A8475F00A84E5F02430E4
:10007300FB7D017F0C1203AAE50875F00A84E5F005
:100083002430FB7D017F0D1203AAE50D75F00A8470
:100093002430FB7D027F081203AAE50D75F00A8464
:1000A300E5F02430FB7D027F091203AAAE0BAF0CEF
:1000B3007C007D0A1201FCEF2430FB7D027F0E12CF
:1000C30003AAAE0BAF0C7C007D0A1201FCED2430B9
:0800D300FB7D027F0F0203AA6E
:1003600020B519300034C200C3E50C9463E50B944A
:10037000005027050CE50C7021050B2220B6193022
:100380000018C200D3E50C9400E50B9400400BE587
:0B0390000C150C7005150B22D200228A
:100167001203F37BFF7A0379C77D01E4FF120327AC
:100177007A0379D7120321E4FF1202518F0A7F0114
:100187001202518F09E4FF1202B98F0812000312FD
:100197000360E50AF4702AE509F47025E508F470B0
:1001A70020300126C2017BFF7A0379E77D02FF1227
:1001B7000327C3E50D946374809480500D050D806B
:1001C70009D2017A0379ED120321C3E50D950CE4F9
:0C01D700950B4004C2B0809FD2B0809B0A
:030000000200DB20
:0C00DB00787FE4F6D8FD75812002012238
:1001E300BB010689828A83E0225002E722BBFE021A
:0901F300E32289828A83E493224D
:1001FC00BC000BBE0029EF8DF084FFADF022E4CCE7
:10020C00F875F008EF2FFFEE33FEEC33FCEE9DECAF
:10021C00984005FCEE9DFE0FD5F0E9E4CEFD22EDF5
:10022C00F8F5F0EE8420D21CFEADF075F008EF2F3F
:10023C00FFED33FD4007985006D5F0F222C398FD30
:05024C000FD5F0EA22CD
:1000E700020167E493A3F8E493A34003F68001F2C7
:1000F70008DFF48029E493A3F85407240CC8C3331A
:10010700C4540F4420C8834004F456800146F6DFE8
:10011700E4800B0102040810204080900469E47E0B
:10012700019360BCA3FF543F30E509541FFEE493DD
:10013700A360010ECF54C025E060A840B8E493A3A4
:10014700FAE493A3F8E493A3C8C582C8CAC583CACF
:10015700F0A3C8C582C8CAC583CADFE9DEE780BE87
:01047100008A
:00000001FF
